:100000000C9469000C9491000C9491000C94910054
:100010000C9491000C9491000C9491000C9491001C
:100020000C9491000C9491000C9491000C9491000C
:100030000C9491000C9491000C9491000C949100FC
:100040000C94B4030C9491000C9486020C946002FE
:100050000C9491000C9491000C9491000C949100DC
:100060000C94FE030C949100CA0CCD0CD00CD30C54
:10007000D60CD90CDC0C00000000240027002A005C
:1000800000000000250028002B00000000080002EE
:100090000100000304070000000000000000000051
:1000A00000002300260029000404040404040404BE
:1000B0000202020202020303030303030102040813
:1000C00010204080010204081020010204081020C2
:1000D000D71211241FBECFEFD8E0DEBFCDBF12E094
:1000E000A0E0B1E0EAEFFAE202C005900D92AA3179
:1000F000B107D9F723E0AAE1B2E001C01D92AB3D00
:10010000B207E1F710E0C9E6D0E004C02197FE0194
:100110000E949013C836D107C9F70E944D0B0C946A
:100120007B150C940000FC01918D828D981761F075
:10013000828DDF01A80FB11D5D968C91928D9F5F1E
:100140009F73928F90E008958FEF9FEF0895FC01C9
:10015000918D828D981731F0828DE80FF11D858D7C
:1001600090E008958FEF9FEF0895FC01918D228D0F
:10017000892F90E0805C9F4F821B91098F73992794
:100180000895FC01848DDF01A80FB11DA35ABF4F54
:100190002C91848D90E001968F739927848FA68986
:1001A000B7892C93A089B1898C9180648C93938DAD
:1001B000848D981306C00288F389E02D80818F7D9D
:1001C00080830895EF92FF920F931F93CF93DF9355
:1001D000EC0181E0888F9B8D8C8D981305C0E88998
:1001E000F989808185FD24C0F62E0B8D10E00F5F0C
:1001F0001F4F0F731127E02E8C8DE8120CC00FB625
:1002000007FCFACFE889F989808185FFF5CFCE0117
:100210000E94C100F1CF8B8DFE01E80FF11DE35A62
:10022000FF4FF0820B8FEA89FB898081806207C0D3
:10023000EE89FF896083E889F98980818064808301
:1002400081E090E0DF91CF911F910F91FF90EF90AF
:100250000895CF93DF93EC01888D8823C9F0EA8954
:10026000FB89808185FD05C0A889B9898C9186FDAF
:100270000FC00FB607FCF5CF808185FFF2CFA889AC
:10028000B9898C9185FFEDCFCE010E94C100E7CFE7
:10029000DF91CF91089580E090E0892B29F00E94B2
:1002A000180781110C9400000895833081F028F420
:1002B000813099F08230A1F008958730A9F088301C
:1002C000B9F08430D1F4809180008F7D03C080919B
:1002D00080008F7780938000089584B58F7702C067
:1002E00084B58F7D84BD08958091B0008F7703C061
:1002F0008091B0008F7D8093B00008953FB7F8944F
:100300008091C8029091C902A091CA02B091CB021B
:1003100026B5A89B05C02F3F19F00196A11DB11D60
:100320003FBFBA2FA92F982F8827820F911DA11D9B
:10033000B11DBC01CD0142E0660F771F881F991FD8
:100340004A95D1F7089585ED8093BC008091BC005B
:1003500084FDFCCF1092CE02089540917E02262F9C
:1003600030E0240F311D21323105DCF42091CE0222
:100370002430C9F4FC0180E090E0861758F43091F5
:100380007E022191DC01A45ABD4FA30FB11D2C9315
:100390000196F3CF80917E02680F60937E0280E029
:1003A000089581E0089582E008950895E091D202D1
:1003B0008091D102E81730F4F0E0E45CFD4F8081D9
:1003C00090E008958FEF9FEF08959091D202809171
:1003D000D102981750F4E92FF0E0E45CFD4F208142
:1003E00030E09F5F9093D20202C02FEF3FEFC90130
:1003F00008958091D10290E02091D202821B910950
:100400000895CF92DF92EF92FF920F931F93CF93B5
:10041000DF937C01262F972F8A0180913B0288234E
:1004200091F0C62FD72F6E01C40ED51ECC15DD0559
:1004300071F06991D701ED91FC910190F081E02D6F
:10044000C7010995F3CF642F822F0E94AD01C80127
:10045000DF91CF911F910F91FF90EF90DF90CF90A0
:100460000895CF93DF931F92CDB7DEB769832091B4
:100470003B022223D1F02091CF02203240F021E034
:1004800030E0FC013383228380E090E015C080914E
:10049000D002E82FF0E0E55EFD4F998190838F5FF9
:1004A0008093D0028093CF0205C061E0CE01019617
:1004B0000E94AD0181E090E00F90DF91CF9108950F
:1004C0001F920F920FB60F9211242F933F934F93C9
:1004D0005F936F937F938F939F93AF93BF93EF93AC
:1004E000FF9388E093E00E94C100FF91EF91BF91DC
:1004F000AF919F918F917F916F915F914F913F91BC
:100500002F910F900FBE0F901F9018951F920F9272
:100510000FB60F9211242F938F939F93EF93FF9316
:10052000E0911803F09119038081E0911E03F0918E
:100530001F0382FD12C09081809121038F5F8F7312
:1005400020912203821751F0E0912103F0E0E85F4F
:10055000FC4F958F8093210301C08081FF91EF9123
:100560009F918F912F910F900FBE0F901F90189514
:10057000CF93DF93282F30E0F901E657FF4F8491A6
:10058000F901E454FF4FD491F901E855FF4FC491AC
:10059000CC2391F081110E945501EC2FF0E0EE0F79
:1005A000FF1FE256FF4FA591B491EC91ED2381E03E
:1005B00090E021F480E002C080E090E0DF91CF91F4
:1005C00008951F93CF93DF93282F30E0F901E6576A
:1005D000FF4F8491F901E454FF4FD491F901E8559C
:1005E000FF4FC491CC23C9F0162F81110E945501F1
:1005F000EC2FF0E0EE0FFF1FE058FF4FA591B491F4
:100600008FB7F894111105C09C91ED2FE095E92367
:1006100002C0EC91ED2BEC938FBFDF91CF911F9136
:100620000895CF93DF93EC0160E08E810E94E10298
:1006300061E08E810E94E10260E08E810E94E10211
:100640008BE891E00197F1F7DF91CF910895CF9377
:10065000DF9390E0FC01E454FF4F2491FC01E85546
:10066000FF4F8491882361F190E0880F991FFC016E
:10067000EA58FF4FC591D491FC01E058FF4FA59176
:10068000B491611109C09FB7F894888120958223A5
:100690008883EC912E230BC0623061F49FB7F894ED
:1006A0003881822F809583238883EC912E2B2C9385
:1006B0009FBF06C08FB7F894E8812E2B28838FBF89
:1006C000DF91CF9108958E3008F08E50877080644E
:1006D00080937C0080917A00806480937A0080917E
:1006E0007A0086FDFCCF809178002091790090E01F
:1006F000922B08958F929F92AF92BF92CF92DF92EA
:10070000EF92FF926B017C010E947E014B015C0124
:10071000C114D104E104F104F1F00E947E01DC0176
:10072000CB0188199909AA09BB09883E9340A10504
:10073000B10570F321E0C21AD108E108F10888EE92
:10074000880E83E0981EA11CB11CC114D104E104E1
:10075000F10419F7DDCFFF90EF90DF90CF90BF90BD
:10076000AF909F908F9008951F920F920FB60F92A7
:1007700011242F933F938F939F93AF93BF938091B7
:10078000040390910503A0910603B09107033091F3
:10079000C70223E0230F2D3720F40196A11DB11DC0
:1007A00005C026E8230F0296A11DB11D2093C702A4
:1007B0008093040390930503A0930603B09307036B
:1007C0008091C8029091C902A091CA02B091CB0257
:1007D0000196A11DB11D8093C8029093C902A093F8
:1007E000CA02B093CB02BF91AF919F918F913F917D
:1007F0002F910F900FBE0F901F9018951F920F9280
:100800000FB60F9211242F933F934F935F936F93E3
:100810007F938F939F93AF93BF93EF93FF938091B9
:10082000B900887F803609F49CC068F5883209F4E5
:100830005BC090F4803109F454C038F4882309F483
:10084000F6C0883009F44DC0F6C0883109F44CC0B8
:10085000803209F45DC0EFC0803409F468C048F408
:10086000803309F455C0883309F0E5C08093A302B2
:10087000D8C0803509F44FC0883509F45DC088348C
:1008800009F0D9C0D6C0883909F4C7C0A8F48837A0
:1008900009F467C038F4883609F463C0803709F476
:1008A00060C0C9C0883809F4B8C0803909F45FC095
:1008B000803809F0C0C05BC0803B09F486C038F4C2
:1008C000803A09F466C0883A09F47FC0B4C0803C1D
:1008D00009F4A7C0883C09F4A4C0883B09F48AC085
:1008E000AAC08091C60210C09091C5028091C40236
:1008F000981770F5E091C50281E08E0F8093C502D4
:10090000F0E0EC55FD4F80818093BB0085EC86C004
:100910008093A3028EC0E091C50281E08E0F809388
:10092000C5028091BB00F0E0EC55FD4F80839091B3
:10093000C5028091C4026EC0E091C50281E08E0FB5
:100940008093C5028091BB00F0E0EC55FD4F8083A1
:100950008091CD0281116DC081E08093CC0284EA48
:1009600061C083E08093CE021092A202CFCF80912B
:10097000A202803208F051C0E091A20281E08E0F05
:100980008093A2028091BB00F0E0EE57FD4F808380
:10099000BDCF85EC8093BC001092CE028091A20264
:1009A000803230F4E091A202F0E0EE57FD4F108269
:1009B0006091A20270E0E0918002F091810282E8F1
:1009C00092E009951092A20236C084E08093CE0294
:1009D00010927F0210927E02E0917C02F0917D02E3
:1009E000099580917E02811105C081E080937E028D
:1009F00010925C02E0917F0281E08E0F80937F0273
:100A0000F0E0E45AFD4F80818093BB0090917F021B
:100A100080917E02981708F479CF85E88093BC0016
:100A20000AC085EC8093BC001092CE0204C01092E4
:100A3000A3020E94A301FF91EF91BF91AF919F91FB
:100A40008F917F916F915F914F913F912F910F9077
:100A50000FBE0F901F901895CF92DF92EF92FF92EA
:100A60000F931F93CF93DF937C016C0187E0C80E37
:100A7000D11CC0E0D0E0062F10E0B8010C2E02C05F
:100A8000759567950A94E2F76170F60181916F019F
:100A90000E94E1022196C430D10579F7C701DF91A8
:100AA000CF911F910F91FF90EF90DF90CF900C941A
:100AB0001103CF92DF92EF92FF920F931F93CF9388
:100AC000DF93EC01F62E642F8C810E94E1028D8170
:100AD0008F3F19F060E00E94E1028F850F2D10E03A
:100AE00084FF25C06E0187E0C80ED11CE12CF12CDB
:100AF000B8010E2C02C0759567950A94E2F76170F3
:100B0000F60181916F010E94E102FFEFEF1AFF0AE7
:100B100088E0E816F10461F7CE01DF91CF911F91D3
:100B20000F91FF90EF90DF90CF900C941103B801DC
:100B300084E0759567958A95E1F7CE010E942C05B2
:100B40006F2DCE01DF91CF911F910F91FF90EF900C
:100B5000DF90CF900C942C0541E00E94590581E074
:100B600090E0089540E00C94590561E00E94B205C0
:100B70008BE39FE10197F1F708956F927F928F9237
:100B80009F92AF92BF92CF92DF92EF92FF920F931C
:100B90001F93CF93DF933C014B015A01E90181E0A0
:100BA00080933B0288E680931A021092D002109242
:100BB000CF0260E085EA93E00E9431028091CF028B
:100BC000813208F045C09091CE029111FCCF92E0A5
:100BD0009093CE0291E09093CD029FEF9093A30269
:100BE0001092C5028093C402ABE1B2E024EA32E085
:100BF000F9019E2F921B981718F49D919193F9CFAC
:100C00001092C6028091C602806D8093C6028091C8
:100C1000CC02813061F41092CC028091C6028093A4
:100C2000BB008091BC0083FDF8CF85EC01C085EE50
:100C30008093BC008091CE028230E1F38091A302C8
:100C40008F3F31F08091A302803211F08091A30296
:100C50001092D0021092CF0210923B028091CE02ED
:100C60008111FCCF81E08093CE028093CD029FEF73
:100C70009093A3021092C50296E09093C4028093D1
:100C8000C6028091C602806D8093C6028091CC021C
:100C9000813061F41092CC028091C6028093BB0037
:100CA0008091BC0083FDF8CF85EC01C085EE809378
:100CB000BC008091CE028130E1F38091C502873083
:100CC00018F48091C50201C087E0A4EAB2E02CE3E9
:100CD00032E0F9019E2F921B981718F49D91919381
:100CE000F9CF1092D2028093D10285EA93E00E945C
:100CF000E501982F9695969596959E70292F220F2F
:100D0000220F920F8F70890FF301808385EA93E0A1
:100D10000E94E501982F92959F708F70FAE09F9F37
:100D2000800D1124F401808385EA93E00E94E5019F
:100D3000982F9695969596959670292F220F220FAB
:100D4000920F8F70890FF501808385EA93E00E94EE
:100D5000E501982F92959F708F70FAE09F9F800D0C
:100D60001124888385EA93E00E94E501982F9295EB
:100D70009F708F702AE0929F800D1124F80180836C
:100D800085EA93E00E94E501982F92959F708F70FD
:100D9000FAE09F9F800D1124F701808385EA93E09C
:100DA0000E94E501982F92959F708F70FAE09F9FA7
:100DB000800D1124F6018083DF91CF911F910F9157
:100DC000FF90EF90DF90CF90BF90AF909F908F906B
:100DD0007F906F900895CF92DF92EF92FF920F93E2
:100DE0001F93CF93DF936C017A018B01C0E0D0E0B9
:100DF000CE15DF0589F0D8016D918D01D601ED91F9
:100E0000FC910190F081E02DC6010995892B11F428
:100E10007E0102C02196ECCFC701DF91CF911F91D7
:100E20000F91FF90EF90DF90CF9008950E9476157C
:100E300088E093E00E94B50021E0892B09F420E0CE
:100E4000822F0895DC01ED91FC910190F081E02D5D
:100E500009946115710579F0FB0101900020E9F713
:100E60003197AF01461B570BDC01ED91FC910280DD
:100E7000F381E02D099480E090E008954F925F9215
:100E80006F927F92EF92FF920F931F93CF93DF9316
:100E9000CDB7DEB7A1970FB6F894DEBF0FBECDBFBA
:100EA0007C01FA01CB0119A2223008F42AE08E015C
:100EB0000F5D1F4F422E512C612C712CBF01A301DD
:100EC00092010E944F13F901CA01015011096A30C1
:100ED00014F4605D01C0695CD8016C93232B242B52
:100EE000252B61F7B801C7010E942907A1960FB60B
:100EF000F894DEBF0FBECDBFDF91CF911F910F9150
:100F0000FF90EF907F906F905F904F9008950C94BA
:100F100029078F929F92AF92BF92CF92DF92EF926A
:100F2000FF92CF93DF93A091B803882311F03A2F5B
:100F300001C030E08091B90390E0880F991F82567C
:100F40009F4FC090BE03D090BF03E090C003F090CD
:100F5000C10340E050E0BA01FC01C591D491288161
:100F60002A2323130FC04A015B012FEF821A920A32
:100F7000A20AB20A4C155D056E057F0538F4B5016D
:100F8000A401EACF342F252FCB0104C030E020E0AC
:100F900080E090E0632F722FDF91CF91FF90EF9070
:100FA000DF90CF90BF90AF909F908F900895CF9299
:100FB000DF92EF92FF920F931F93CF93DF93CDB702
:100FC000DEB7C054D1400FB6F894DEBF0FBECDBF20
:100FD0002FB7F8948091040390910503A091060324
:100FE000B09107032FBF4091BA035091BB036091AA
:100FF000BC037091BD038C019D01041B150B260BD6
:10100000370BB901A801403D57406105710518F43F
:101010008091C203BCC08093BA039093BB03A0939A
:10102000BC03B093BD031092B5031092B4031092A9
:10103000B3031092B2031092B10361E08091B60342
:101040000E94E1026AEF70E080E090E00E947A0383
:1010500061E08091B6030E94270360E08091B603AF
:101060000E94E10264E170E080E090E00E947A0377
:10107000F89461E08091B6030E94E1028BE990E070
:101080000197F1F762E08091B6030E94270383E2A3
:1010900090E00197F1F780E00E948907672B682BA9
:1010A000692B21F41092C20378943EC081E00E9423
:1010B0008907672B682B692BA9F38E010F5F1F4FE0
:1010C0006E012FEBC21A2EEFD20A780180E00E9447
:1010D0008907F701608371838283938381E00E9493
:1010E0008907F7016483758386839783F8E0EF0EA1
:1010F000F11CEC14FD0451F7789420E030E0F80185
:101100004081518162817381C480D580E680F780FF
:10111000411551056105710529F0C114D104E1049F
:10112000F10421F41092C20380E031C0F90183E0A0
:10113000F595E7958A95E1F7EF54FC4F8081880F8C
:101140004C155D056E057F0508F4816080832F5F77
:101150003F4F085F1F4F2832310589F62091B503B4
:1011600030E04091B1038091B20390E0840F911D73
:101170004091B303840F911D4091B403840F911DDE
:1011800099272817390771F681E08093C203C05C64
:10119000DE4F0FB6F894DEBF0FBECDBFDF91CF910B
:1011A0001F910F91FF90EF90DF90CF900895EF92F5
:1011B000FF920F931F93CF93DF93EC01623018F0EF
:1011C0008F8588608F876B8B1C8A80E48D8B80E194
:1011D0008E8B80E58F8B61E08C810E9427038D814F
:1011E0008F3F19F061E00E94270361E08E810E9429
:1011F00027037E0187E0E80EF11C00E010E08F85F8
:1012000084FD03C084E090E002C088E090E008170D
:1012100019074CF461E0F70181917F010E942703D7
:101220000F5F1F4FECCF8BE39DE00197F1F760E07C
:101230008C810E94E10260E08E810E94E1028D813A
:101240008F3F19F060E00E94E1026F8564FD1DC0D0
:1012500063E0CE010E942C050BE416E4C80101975F
:10126000F1F763E0CE010E942C05C8010197F1F768
:1012700063E0CE010E942C0583E592E00197F1F72F
:1012800062E0CE010E942C0516C06062CE010E9471
:10129000B2058BE496E40197F1F76F856062CE01A9
:1012A0000E94B20583E592E00197F1F76F856062D5
:1012B000CE010E94B2056F856062CE010E94B20528
:1012C00084E0888B6CE0CE010E94B205CE010E94C2
:1012D000B50582E0898B66E0CE01DF91CF911F9149
:1012E0000F91FF90EF900C94B205CF93DF93BC0168
:1012F00088E093E00E942907EC016BE072E088E04F
:1013000093E00E9429078C0F9D1FDF91CF910895D4
:10131000462F50E060E070E02AE00C943E07CF9248
:10132000DF92EF92FF920F931F93CF93DF9377FF9C
:101330001DC06A017B01EC016DE20E9422078C0155
:1013400044275527BA014C195D096E097F092AE027
:10135000CE010E943E07800F911FDF91CF911F9118
:101360000F91FF90EF90DF90CF9008952AE0DF91EA
:10137000CF911F910F91FF90EF90DF90CF900C9441
:101380003E07CF93DF93AB01BC0188E093E00E945E
:101390008F09EC016BE072E088E093E00E9429077E
:1013A0008C0F9D1FDF91CF910895643008F063E0AA
:1013B0009091D603691710F06FEF690FE62FF0E0F8
:1013C000ED53FC4F9489682F690F606883EC93E0BC
:1013D0000C94B2058F929F92AF92BF92CF92DF9200
:1013E000EF92FF92CF93DF936B017C019B01AC01E5
:1013F0000E947115882319F06EE072E027C0460143
:101400005701E894B7F82FEF3FEF4FE75FE7C501CB
:10141000B4010E94711581110DC02FEF3FEF4FE70E
:101420005FE7C501B4010E94191418161CF462E1AB
:1014300072E00CC02FEF3FEF4FE75FE4C701B6014A
:101440000E94FF14181684F466E172E083EC93E0C6
:10145000DF91CF91FF90EF90DF90CF90BF90AF9052
:101460009F908F900C9429072FEF3FEF4FE75FEC91
:10147000C701B6010E94191487FDE6CF20E030E0D5
:10148000A901C701B6010E94191487FF0BC06DE2C4
:1014900083EC93E00E942207EC01F7FAF094F7F84E
:1014A000F09402C0C0E0D0E02AE037ED43EA5BE30D
:1014B000C701B6010E94AD134B015C010E941E14CE
:1014C0006B017C010E944D149B01AC01C501B4016C
:1014D0000E94AC134B015C012AE0B701A60183EC2A
:1014E00093E00E943E07C80FD91F6EE283EC93E0A1
:1014F0000E942207C80FD91F20E030E040E251E4EB
:10150000C501B4010E9404154B015C010E941E1428
:101510006B01E12CF12C2AE0B701A60183EC93E0EA
:101520000E943E07C80FD91FC701B6010E944D1483
:101530009B01AC01C501B4010E94AC1320E030E076
:1015400040E251E40E9404150E941E14AB0160E0C9
:1015500070E02AE083EC93E00E943E078C0F9D1F11
:10156000DF91CF91FF90EF90DF90CF90BF90AF9041
:101570009F908F900895CF92DF92EF92FF92CF933A
:101580000E94D7078823D1F18091B7038B3029F0CF
:10159000A8F18551823048F031C06091B30370E00A
:1015A00080E090E00E944D142DC0C091B3036C2FD9
:1015B0006F7770E080E090E00E944F1420E030E010
:1015C00040E853E40E9404156B017C018091B40350
:1015D000682F70E080E090E00E944F149B01AC0106
:1015E000C701B6010E94AD132DEC3CEC4CEC5DE361
:1015F0000E940415C7FF06C0905804C060E070E068
:1016000080EC9FE7CF91FF90EF90DF90CF9008950F
:10161000CF92DF92EF92FF920E94D7078823A1F129
:101620008091B7038B3041F178F18551823060F5BC
:101630006091B10370E080E090E00E944D1420E0E2
:1016400030E040E853E40E9404156B017C01809176
:10165000B203682F70E080E090E00E944F149B017D
:10166000AC01C701B6010E94AD132DEC3CEC4CEC73
:101670005DE30E9404150CC06091B10370E080E04E
:1016800090E00E944D1404C060E070E080EC9FE7A1
:10169000FF90EF90DF90CF900895CF93DF93CDB779
:1016A000DEB727970FB6F894DEBF0FBECDBF789494
:1016B00084B5826084BD84B5816084BD85B5826057
:1016C00085BD85B5816085BD80916E008160809308
:1016D0006E00109281008091810082608093810071
:1016E0008091810081608093810080918000816081
:1016F000809380008091B10084608093B1008091DC
:10170000B00081608093B00080917A008460809303
:101710007A0080917A00826080937A0080917A00CA
:10172000816080937A0080917A00806880937A004B
:101730001092C10062E08091B6030E94270380E30B
:1017400098EFAFEFBFEF8093BA039093BB03A093E2
:10175000BC03B093BD031092D2021092D10210923A
:10176000D0021092CF021092CE0281E08093CD027F
:101770001092CC0261E082E10E94E10261E083E12B
:101780000E94E1028091B9008E7F8093B900809120
:10179000B9008D7F8093B90088E48093B80085E418
:1017A0008093BC00E0911803F091190382E08083DC
:1017B000E0911403F09115031082E0911603F0916B
:1017C00017038FEC808310922003E0911C03F091AB
:1017D0001D0386E08083E0911A03F0911B03808152
:1017E00080618083E0911A03F0911B0380818860FF
:1017F0008083E0911A03F0911B03808180688083CD
:10180000E0911A03F0911B0380818F7D808361E05A
:101810008BE10E94270360E089E10E94270360E0DA
:1018200087E10E94270360E08BE10E94E10264E00F
:1018300083EC93E00E94D70883EC93E00E94B50507
:1018400080EA95E0A0E0B0E08093D9029093DA02BC
:10185000A093DB02B093DC021092E1021092E2024C
:101860001092E3021092E4021092DD021092DE0266
:101870001092DF021092E0021092D5021092D6026E
:101880001092D7021092D8021092EF021092EE023C
:101890001092D4021092D30244244A9463E0562E4C
:1018A000612C712CAA24A394B12C9E012F5F3F4F71
:1018B0006901CE0102967C018E010D5F1F4F2D5FE5
:1018C0003F4FAE014B5F5F4FBE016A5F7F4F059692
:1018D0000E94BD056D8188E093E00E9488096BE756
:1018E00071E088E093E00E9487078E818A3030F4AF
:1018F00068E271E088E093E00E9487076E8188E0EB
:1019000093E00E9488096BE771E088E093E00E9411
:1019100087078F818A3030F468E271E088E093E0D5
:101920000E9487076F8188E093E00E94880969E33D
:1019300071E088E093E00E9487076B8188E093E084
:101940000E9488096AE271E088E093E00E948707BC
:101950006A8188E093E00E9488096AE271E088E089
:1019600093E00E948707698188E093E00E948809DC
:101970006CE271E088E093E00E948707EC818E2F93
:1019800090E0FC013197E730F105D0F4EC5CFF4FBB
:101990000C9490138BE391E011C082E491E00EC0AF
:1019A00089E491E00BC081E591E008C08BE591E00E
:1019B00005C084E691E002C08BE691E00E947509C3
:1019C0000E94080B6093000370930103809302034D
:1019D000909303030E94BB0A6093FC027093FD0284
:1019E0008093FE029093FF028EE00E9463037C01CD
:1019F0009093FB028093FA028FE00E94630390931E
:101A0000F9028093F80224E630E0D7010E94961391
:101A1000A30192010E9471132093F4023093F50206
:101A20004093F6025093F70260E080E00E94D509EF
:101A300064E771E083EC93E00E9487074091F40231
:101A40005091F5026091F6027091F70283EC93E0F9
:101A50000E948F0965E283EC93E00E942207A09127
:101A6000F802B091F90224E630E00E949613A30137
:101A700092010E9471132093F0023093F10240937F
:101A8000F2025093F30260E086E00E94D50967E716
:101A900071E083EC93E00E9487074091F00250913F
:101AA000F1026091F2027091F30283EC93E00E94E4
:101AB0008F0965E283EC93E00E94220760E08CE0EE
:101AC0000E94D5096AE771E083EC93E00E948707E2
:101AD0004091EE025091EF02052E000C660B770B41
:101AE00083EC93E00E948F0961E080E00E94D509B9
:101AF0006DE771E083EC93E00E948707609100033B
:101B00007091010380910203909103030E94EA09FE
:101B100061E089E00E94D50960E871E083EC93E020
:101B20000E9487076091FC027091FD028091FE0285
:101B30009091FF020E94EA0964E170E080E090E089
:101B40000E947A038091F4029091F502A091F6022E
:101B5000B091F70284369105A105B10504F520E0A6
:101B600030E040EF51E46091FC027091FD02809101
:101B7000FE029091FF020E94FF14181684F020E0EC
:101B800030E040EA51E460910003709101038091DC
:101B90000203909103030E94191487FF05C0B092BD
:101BA000ED02A092EC0204C01092ED021092EC0241
:101BB00045EEC42E42E0D42E56EEE52E52E0F52E30
:101BC00007EE12E028EE32E049EE52E06AEE72E0F3
:101BD0008BEE92E00E94BD0563E080E00E94D50993
:101BE0006091E90283EC93E00E9488096BE771E061
:101BF00083EC93E00E9487078091EA028A3030F4F8
:101C000068E271E083EC93E00E9487076091EA024A
:101C100083EC93E00E9488096BE771E083EC93E02A
:101C20000E9487078091EB028A3030F468E271E00D
:101C300083EC93E00E9487076091EB0283EC93E0D2
:101C40000E9488093091E9022091EA02822F90E0F7
:101C50004CE3349F800D911D1124092E000CAA0B1A
:101C6000BB0B8093E1029093E202A093E302B09356
:101C7000E4028091EB0290E03CE3239F800D911DF4
:101C80001124092E000CAA0BBB0B8093DD0290934C
:101C9000DE02A093DF02B093E00289E10E94B80265
:101CA000019709F079C487E10E94B802019709F011
:101CB00005C283E891E00E94750962E080E00E941D
:101CC000D5096FE871E083EC93E00E94870760918B
:101CD000E1027091E2028091E3029091E4020E949D
:101CE000C1098091E1029091E202A091E302B091DA
:101CF000E402BC01CD0168587F4F8F4F9F4F609326
:101D0000D9027093DA028093DB029093DC020E9486
:101D1000C1098091D9029091DA02A091DB02B091C1
:101D2000DC02813A45E09407A105B10564F0805AD0
:101D30009540A109B1098093D9029093DA02A0934A
:101D4000DB02B093DC028091DD029091DE02A09173
:101D5000DF02B091E002AC01BD0148585F4F6F4F08
:101D60007F4F41312EE05207610571054CF44093DD
:101D7000D5025093D6026093D7027093D8020CC05C
:101D800088599D40A109B1098093D5029093D6024C
:101D9000A093D702B093D8026091D5027091D60279
:101DA0008091D7029091D8020E94C1091092D4026A
:101DB0001092D3024091DD025091DE026091DF0269
:101DC0007091E0028091D5029091D602A091D70245
:101DD000B091D80284179507A607B7070CF439C14C
:101DE00061E08BE10E94E1020E94080B6093000316
:101DF0007093010380930203909303030E94BB0A34
:101E00006093FC027093FD028093FE029093FF02A8
:101E10008EE00E9463037C019093FB028093FA02A0
:101E20008FE00E9463039093F9028093F80224E606
:101E300030E0D7010E949613A30192010E94711312
:101E40002093F4023093F5024093F6025093F70288
:101E500060E080E00E94D50964E771E083EC93E0E4
:101E60000E9487074091F4025091F5026091F602BA
:101E70007091F70283EC93E00E948F0965E283EC96
:101E800093E00E942207A091F802B091F90224E6A3
:101E900030E00E949613A30192010E9471132093D7
:101EA000F0023093F1024093F2025093F30260E0AB
:101EB00086E00E94D50967E771E083EC93E00E9419
:101EC00087074091F0025091F1026091F202709107
:101ED000F30283EC93E00E948F0965E283EC93E0C8
:101EE0000E94220760E08CE00E94D5096AE771E059
:101EF00083EC93E00E9487074091EE025091EF023D
:101F0000052E000C660B770B83EC93E00E948F0983
:101F100061E080E00E94D5096DE771E083EC93E019
:101F20000E94870760910003709101038091020372
:101F3000909103030E94EA0961E089E00E94D509BB
:101F400060E871E083EC93E00E9487076091FC02F7
:101F50007091FD028091FE029091FF020E94EA09B9
:101F600062E080E00E94D5096FE971E083EC93E0C4
:101F70000E94870725EEC22E22E0D22E36EEE32EF7
:101F800032E0F32E07EE12E028EE32E049EE52E0A6
:101F90006AEE72E08BEE92E00E94BD052091EA02AB
:101FA0008091EB0290E03CE3239F800D911D112472
:101FB000092E000CAA0BBB0B8093DD029093DE026E
:101FC000A093DF02B093E00263E080E00E94D509B5
:101FD0006091E90283EC93E00E9488096BE771E06D
:101FE00083EC93E00E9487078091EA028A3030F404
:101FF00068E271E083EC93E00E9487076091EA0257
:1020000083EC93E00E9488096BE771E083EC93E036
:102010000E9487078091EB028A3030F468E271E019
:1020200083EC93E00E9487076091EB0283EC93E0DE
:102030000E94880964E670E080E090E00E947A03E4
:1020400083EC93E00E94B505B092D402A092D30233
:10205000B1CE8091D3029091D402019751F4809136
:10206000EE029091EF0201969093EF028093EE02C0
:102070000AC062E080E00E94D50960EB71E083EC69
:1020800093E00E94870760E08BE10E94E1021092DA
:10209000D5021092D6021092D7021092D802109256
:1020A000D4021092D30268EE73E080E090E00E94C8
:1020B0007A0383EC93E00E94B50572C281EC91E053
:1020C0000E94750962E080E00E94D50961EC71E030
:1020D00083EC93E00E9487078091EC029091ED02DF
:1020E0000197B1F0C090E102D090E202E090E302EB
:1020F000F090E4028091D9029091DA02A091DB0283
:10210000B091DC02C816D906EA06FB0609F0FBC14D
:102110008BEC91E00E9475096091E1027091E202FE
:102120008091E3029091E4020E94C1098091E10252
:102130009091E202A091E302B091E402BC01CD01D2
:1021400068587F4F8F4F9F4F6093D9027093DA0288
:102150008093DB029093DC020E94C1098091D90236
:102160009091DA02A091DB02B091DC02813A45E065
:102170009407A105B10564F0805A9540A109B10901
:102180008093D9029093DA02A093DB02B093DC0231
:102190008091DD029091DE02A091DF02B091E00219
:1021A000AC01BD0148585F4F6F4F7F4F41312EE06A
:1021B0005207610571054CF44093D5025093D60245
:1021C0006093D7027093D8020CC088599D40A10932
:1021D000B1098093D5029093D602A093D702B09311
:1021E000D8026091D5027091D6028091D702909169
:1021F000D8020E94C1091092D4021092D3024091D9
:10220000DD025091DE026091DF027091E002809168
:10221000D5029091D602A091D702B091D80284172E
:102220009507A607B7070CF439C161E08BE10E945E
:10223000E1020E94080B60930003709301038093F6
:102240000203909303030E94BB0A6093FC02709305
:10225000FD028093FE029093FF028EE00E946303D2
:102260007C019093FB028093FA028FE00E9463034B
:102270009093F9028093F80224E630E0D7010E949F
:102280009613A30192010E9471132093F4023093DC
:10229000F5024093F6025093F70260E080E00E945E
:1022A000D50964E771E083EC93E00E9487074091D1
:1022B000F4025091F5026091F6027091F70283ECFE
:1022C00093E00E948F0965E283EC93E00E9422076D
:1022D000A091F802B091F90224E630E00E94961332
:1022E000A30192010E9471132093F0023093F10236
:1022F0004093F2025093F30260E086E00E94D50919
:1023000067E771E083EC93E00E9487074091F00259
:102310005091F1026091F2027091F30283EC93E02C
:102320000E948F0965E283EC93E00E94220760E03F
:102330008CE00E94D5096AE771E083EC93E00E948B
:1023400087074091EE025091EF02052E000C660BBC
:10235000770B83EC93E00E948F0961E080E00E949C
:10236000D5096DE771E083EC93E00E9487076091E7
:1023700000037091010380910203909103030E9476
:10238000EA0961E089E00E94D50960E871E083EC28
:1023900093E00E9487076091FC027091FD0280919A
:1023A000FE029091FF020E94EA0962E080E00E9432
:1023B000D5096AED71E083EC93E00E94870785EE12
:1023C000C82E82E0D82E96EEE92E92E0F92E07EE86
:1023D00012E028EE32E049EE52E06AEE72E08BEE57
:1023E00092E00E94BD052091EA028091EB0290E00C
:1023F0003CE3239F800D911D1124092E000CAA0B94
:10240000BB0B8093DD029093DE02A093DF02B093BA
:10241000E00263E080E00E94D5096091E90283EC6C
:1024200093E00E9488096BE771E083EC93E00E94DF
:1024300087078091EA028A3030F468E271E083EC29
:1024400093E00E9487076091EA0283EC93E00E9488
:1024500088096BE771E083EC93E00E948707809125
:10246000EB028A3030F468E271E083EC93E00E9482
:1024700087076091EB0283EC93E00E94880964E691
:1024800070E080E090E00E947A0383EC93E00E9489
:10249000B505B092D402A092D302B1CE8091D302FE
:1024A0009091D402019751F48091EE029091EF0245
:1024B00001969093EF028093EE020AC062E080E002
:1024C0000E94D50960EB71E083EC93E00E948707DE
:1024D00060E08BE10E94E1021092D5021092D602D8
:1024E0001092D7021092D8021092D4021092D30206
:1024F00068EE73E080E090E00E947A0383EC93E062
:102500000E94B50542C0803A9540A105B105E9F5A4
:1025100060E08BE10E94E102D701C60188589F4F1D
:10252000AF4FBF4F813A25E09207A105B1054CF4AA
:102530008093D9029093DA02A093DB02B093DC027D
:102540000EC038E2C31A35E0D30AE108F108C092A0
:10255000D902D092DA02E092DB02F092DC02109211
:10256000D5021092D6021092D7021092D80289EEAC
:1025700091E00E9475096091D9027091DA02809110
:10258000DB029091DC020E94C10964E670E080E009
:1025900090E00E947A0304C060E08BE10E94E102B7
:1025A00083EC93E00E94B5050E944B017EC9E8E0F0
:1025B000F3E01382128288EE93E0A0E0B0E084831F
:1025C0009583A683B78324E031E03183208325EC13
:1025D00030E03587248724EC30E03787268720ECED
:1025E00030E0318B208B21EC30E0338B228B22ECDE
:1025F00030E0358B248B26EC30E0378B268B118E28
:10260000128E138E148EE5EAF3E013821282848315
:102610009583A683B78384E191E091838083E3EC83
:10262000F3E01382128284E291E0918380838CE054
:1026300084838FEF85838BE0868385E0878384E0C6
:10264000808783E0818782E08287138614861586DF
:102650001686178661E0CF010E94D708A1EBB3E090
:1026600088E015968C93159786E116968C931697AD
:10267000E4ECF0E0E4911796EC931797E0EBF0E0D0
:10268000E4911896EC93189740E85EE360E070E000
:102690001D964D935D936D937C9350970895A1E2A1
:1026A0001A2EAA1BBB1BFD010DC0AA1FBB1FEE1FCC
:1026B000FF1FA217B307E407F50720F0A21BB30B17
:1026C000E40BF50B661F771F881F991F1A9469F793
:1026D00060957095809590959B01AC01BD01CF01EF
:1026E0000895052E97FB1EF400940E94881357FD51
:1026F00007D00E944F1307FC03D04EF40C948813AC
:1027000050954095309521953F4F4F4F5F4F08951D
:1027100090958095709561957F4F8F4F9F4F08954D
:10272000EE0FFF1F0590F491E02D09940E949D1378
:10273000B7FF0895821B930B0895A29FB001B39F2A
:10274000C001A39F700D811D1124911DB29F700DBA
:10275000811D1124911D08955058BB27AA270E945E
:10276000C4130C94C5140E94B71438F00E94BE1410
:1027700020F039F49F3F19F426F40C94B4140EF4AD
:10278000E095E7FB0C94AE14E92F0E94D61458F3A1
:10279000BA17620773078407950720F079F4A6F546
:1027A0000C94F8140EF4E0950B2EBA2FA02D0B010B
:1027B000B90190010C01CA01A0011124FF27591B86
:1027C00099F0593F50F4503E68F11A16F040A22F8C
:1027D000232F342F4427585FF3CF469537952795FD
:1027E000A795F0405395C9F77EF41F16BA0B620BFC
:1027F000730B840BBAF09150A1F0FF0FBB1F661F43
:10280000771F881FC2F70EC0BA0F621F731F841F85
:1028100048F4879577956795B795F7959E3F08F0AB
:10282000B0CF9395880F08F09927EE0F979587956D
:1028300008950E948A1408F481E008950E94DE142D
:1028400088F09F5798F0B92F9927B751B0F0E1F071
:10285000660F771F881F991F1AF0BA95C9F714C021
:10286000B13091F00E94F814B1E008950C94F8147E
:10287000672F782F8827B85F39F0B93FCCF386955A
:1028800077956795B395D9F73EF4909580957095B7
:1028900061957F4F8F4F9F4F0895E89409C097FB34
:1028A0003EF490958095709561957F4F8F4F9F4F27
:1028B0009923A9F0F92F96E9BB279395F69587956B
:1028C00077956795B795F111F8CFFAF4BB0F11F42E
:1028D00060FF1BC06F5F7F4F8F4F9F4F16C08823D5
:1028E00011F096E911C0772321F09EE8872F762F0B
:1028F00005C0662371F096E8862F70E060E02AF04C
:102900009A95660F771F881FDAF7880F9695879537
:1029100097F90895990F0008550FAA0BE0E8FEEF0C
:1029200016161706E807F907C0F012161306E40793
:10293000F50798F0621B730B840B950B39F40A268C
:1029400061F0232B242B252B21F408950A2609F46A
:10295000A140A6958FEF811D811D089597F99F676E
:1029600080E870E060E008959FEF80EC0895002417
:102970000A941616170618060906089500240A94E4
:1029800012161306140605060895092E0394000C6A
:1029900011F4882352F0BB0F40F4BF2B11F460FFF9
:1029A00004C06F5F7F4F8F4F9F4F089557FD905822
:1029B000440F551F59F05F3F71F04795880F97FB03
:1029C000991F61F09F3F79F08795089512161306BD
:1029D0001406551FF2CF4695F1DF08C016161706EC
:1029E0001806991FF1CF8695710561050894089521
:1029F000E894BB2766277727CB0197F908950E94B3
:102A00008A1408F48FEF08950E9417150C94C514CA
:102A10000E94B71438F00E94BE1420F0952311F0E4
:102A20000C94AE140C94B41411240C94F9140E9458
:102A3000D61470F3959FC1F3950F50E0551F629F18
:102A4000F001729FBB27F00DB11D639FAA27F00D07
:102A5000B11DAA1F649F6627B00DA11D661F829F2E
:102A60002227B00DA11D621F739FB00DA11D621F13
:102A7000839FA00D611D221F749F3327A00D611D30
:102A8000231F849F600D211D822F762F6A2F112412
:102A90009F5750409AF0F1F088234AF0EE0FFF1F45
:102AA000BB1F661F771F881F91505040A9F79E3F9C
:102AB000510580F00C94AE140C94F9145F3FE4F3CC
:102AC000983ED4F3869577956795B795F795E795F2
:102AD0009F5FC1F7FE2B880F911D9695879597F9FB
:102AE00008950E948A14880B990B089581E090E064
:0A2AF000F8940C947B15F894FFCFC6
:102AFA0000000000E200EB06B5009300A7002901E0
:102B0A000000000031020102F901E501D601D501F8
:102B1A0000000000AC05EB0630002F00204461796C
:102B2A00206F66207765656B3A200053756E646185
:102B3A0079004D6F6E6461790054756573646179CB
:102B4A00005765646E6573646179005468757273C1
:102B5A0064617900467269646179005361747572BF
:102B6A00646179004D3A004C3A00433A00483A0011
:102B7A00543A004D414E55414C204D4F4445004D6D
:102B8A00616E75616C205374617274696E67004D71
:102B9A00616E75616C3A205761746572696E67007F
:102BAA0053756666696369656E74205761746572E8
:102BBA00004175746F204D6F64650053656E736FC5
:102BCA0072206F722054696D65004175746F3A20E6
:102BDA005761746572696E67004175746F204D6F35
:102BEA0064653A2046697273742054696D65204998
:102BFA006E697469616C697A6564000D0A006E61B8
:0A2C0A006E00696E66006F766600CA
:00000001FF
