:100000001BC100004AC1000048C1000046C10000F9
:1000100044C1000042C1000040C100003EC10000D8
:100020003CC100003AC1000038C1000036C10000E8
:1000300034C1000032C1000030C100002EC10000F8
:100040002CC100002AC1000028C1000026C1000008
:1000500024C1000022C1000020C100009FC4000094
:100060001CC1000068C300003DC3000016C10000B1
:1000700014C1000012C1000010C100000EC1000038
:100080000CC100000AC1000008C1000006C1000048
:1000900004C1000002C1000000C10000C9C400008A
:1000A000FCC00000FAC00000F8C00000F6C000006C
:1000B000F4C00000F2C00000F0C00000EEC000007C
:1000C000ECC00000EAC00000E8C00000E6C000008C
:1000D000E4C00000E2C00000E0C00000DEC000009C
:1000E000DCC0000057025A0249024D02530291023D
:1000F0005E02620268026C02700276027A027E027E
:100100009102840288028C02C10DC40DC70DCA0D74
:10011000CD0DD00DD30D00002100240027002A00B2
:100120002D003000330001010000040107010A0125
:1001300000002200250028002B002E003100340092
:1001400002010000050108010B0100000A0B020971
:100150000C0D0E0807030401000000000000000061
:10016000000000000000000000000000000000008F
:10017000000000000000121110000000000000004C
:10018000000000000000000000000000000000006F
:10019000000020002300260029002C002F00320040
:1001A0000001000003010601090105050505070519
:1001B00008080808020202020A0A080804040404E3
:1001C000010101010101010103030303030303030F
:1001D000040707070C0C0C0C0C0C0C0C020202029E
:1001E00006060606060606060B0B0B0B0B0B0B0B87
:1001F0000102102020080810204010204080020139
:10020000020108040201010204081020408080401D
:10021000201008040201800402018040201008041C
:1002200002010804020101020408102040800102BA
:10023000040810204080701311241FBECFEFD1E2BC
:10024000DEBFCDBF00E00CBF13E0A0E0B2E0E6EF00
:10025000FBE200E00BBF02C007900D92AC31B1078A
:10026000D9F724E0ACE1B3E001C01D92AD3DB20787
:10027000E1F711E0CCE1D1E000E006C021970109EF
:10028000802FFE010E942614CB31D10780E00807A1
:10029000A9F70E94270C0C94F915B2CEFC01918DA0
:1002A000828D981761F0828DDF01A80FB11D5D96D8
:1002B0008C91928D9F5F9F73928F90E008958FEF46
:1002C0009FEF0895FC01918D828D981731F0828DFA
:1002D000E80FF11D858D90E008958FEF9FEF089551
:1002E000FC01918D228D892F90E0805C9F4F821BB5
:1002F00091098F7399270895FC01848DDF01A80F60
:10030000B11DA35ABF4F2C91848D90E001968F733D
:100310009927848FA689B7892C93A089B1898C915C
:1003200080648C93938D848D981306C00288F38922
:10033000E02D80818F7D80830895EF92FF920F934F
:100340001F93CF93DF93EC0181E0888F9B8D8C8D81
:10035000981305C0E889F989808185FD23C0F62EB0
:100360000B8D10E00F5F1F4F0F731127E02E8C8D48
:10037000E8120BC00FB607FCFACFE889F989808133
:1003800085FFF5CFCE01B8DFF2CF8B8DFE01E80FF0
:10039000F11DE35AFF4FF0820B8FEA89FB898081C0
:1003A000806207C0EE89FF896083E889F9898081CE
:1003B0008064808381E090E0DF91CF911F910F9165
:1003C000FF90EF900895CF93DF93EC01888D882301
:1003D000C1F0EA89FB89808185FD05C0A889B989BA
:1003E0008C9186FD0EC00FB607FCF5CF808185FF8E
:1003F000F2CFA889B9898C9185FFEDCFCE017CDF42
:10040000E8CFDF91CF91089580E090E0892B19F03B
:1004100019D6811125C080E090E0892B41F080E061
:1004200090E0892B21F00E94000081111CC080E027
:1004300090E0892B41F080E090E0892B21F00E9430
:100440000000811113C080E090E0892BA1F080E0D2
:1004500090E0892B81F00E94000081110AC008956C
:100460000E940000D8CF0E940000E1CF0E9400004F
:10047000EACF0C940000089590E0FC013197E2313E
:10048000F10508F04EC08827EE58FF4F8F4F0C94AF
:100490002614809180008F7703C0809180008F7D2B
:1004A00080938000089580918000877FF9CF84B584
:1004B0008F7702C084B58F7D84BD08958091B00090
:1004C0008F7703C08091B0008F7D8093B000089536
:1004D000809190008F7707C0809190008F7D03C03E
:1004E00080919000877F8093900008958091A00074
:1004F0008F7707C08091A0008F7D03C08091A000FE
:10050000877F8093A0000895809120018F7707C096
:10051000809120018F7D03C080912001877F80938F
:10052000200108953FB7F8948091CA039091CB03BE
:10053000A091CC03B091CD0326B5A89B05C02F3F59
:1005400019F00196A11DB11D3FBFBA2FA92F982FF9
:100550008827820F911DA11DB11DBC01CD0142E074
:10056000660F771F881F991F4A95D1F7089585ED6B
:100570008093BC008091BC0084FDFCCF1092D0031E
:10058000089540918003262F30E0240F311D213241
:100590003105DCF42091D0032430C9F4FC0180E063
:1005A00090E0861758F4309180032191DC01A25A23
:1005B000BC4FA30FB11D2C930196F3CF8091800304
:1005C000680F6093800380E0089581E0089582E0E1
:1005D00008950895E091D4038091D303E81730F48F
:1005E000F0E0E25CFC4F808190E008958FEF9FEF98
:1005F00008959091D4038091D303981750F4E92F74
:10060000F0E0E25CFC4F208130E09F5F9093D403E8
:1006100002C02FEF3FEFC90108958091D30390E00E
:100620002091D403821B91090895CF92DF92EF921B
:10063000FF920F931F93CF93DF937C01262F972F69
:100640008A0180913D03882391F0C62FD72F6E0138
:10065000C40ED51ECC15DD0569F06991D701ED9169
:10066000FC910190F081E02DC7011995F3CF642F23
:10067000822F87DFC801DF91CF911F910F91FF90EB
:10068000EF90DF90CF900895CF93DF931F92CDB777
:10069000DEB7698320913D032223D1F02091D1035D
:1006A000203240F021E030E0FC013383228380E0FF
:1006B00090E014C08091D203E82FF0E0E35EFC4F9D
:1006C000998190838F5F8093D2038093D10304C07C
:1006D00061E0CE01019655DF81E090E00F90DF915F
:1006E000CF9108951F920F920FB60F9211240BB65F
:1006F0000F922F933F934F935F936F937F938F93BB
:100700009F93AF93BF93EF93FF938AE094E0F4DD60
:10071000FF91EF91BF91AF919F918F917F916F91D9
:100720005F914F913F912F910F900BBE0F900FBE95
:100730000F901F9018951F920F920FB60F921124D1
:100740000BB60F922F938F939F93EF93FF93E091AC
:100750001A04F0911B048081E0912004F09121049F
:1007600082FD12C09081809123048F5F8F7320914E
:100770002404821751F0E0912304F0E0E65FFB4F80
:10078000958F8093230401C08081FF91EF919F9109
:100790008F912F910F900BBE0F900FBE0F901F9057
:1007A0001895CF93DF93282F30E0F901E65BFE4FD9
:1007B0008491F901E051FE4FD491F901E655FE4FC5
:1007C000C491CC2389F0811157DEEC2FF0E0EE0FBD
:1007D000FF1FE057FE4FA591B491EC91ED2381E00E
:1007E00090E021F480E002C080E090E0DF91CF91C2
:1007F00008951F93CF93DF93282F30E0F901E65B34
:10080000FE4F8491F901E051FE4FD491F901E65574
:10081000FE4FC491CC23C1F0162F81112DDEEC2F99
:10082000F0E0EE0FFF1FE05DFE4FA591B4918FB792
:10083000F894111105C09C91ED2FE095E92302C0B9
:10084000EC91ED2BEC938FBFDF91CF911F91089529
:10085000CF93DF93EC0160E08E81CBDF61E08E818E
:10086000C8DF60E08E81C5DF8BE891E00197F1F78A
:10087000DF91CF910895CF93DF9390E0FC01E05199
:10088000FE4F2491FC01E655FE4F8491882361F1CF
:1008900090E0880F991FFC01EA5EFE4FC591D4914C
:1008A000FC01E05DFE4FA591B491611109C09FB7B5
:1008B000F8948881209582238883EC912E230BC0A5
:1008C000623061F49FB7F8943881822F809583233A
:1008D0008883EC912E2B2C939FBF06C08FB7F89482
:1008E000E8812E2B28838FBFDF91CF910895863327
:1008F00008F0865390917B00282F2870977F922BC9
:1009000090937B008770806480937C0080917A0054
:10091000806480937A0080917A0086FDFCCF80917C
:1009200078002091790090E0922B08958F929F9209
:10093000AF92BF92CF92DF92EF92FF926B017C0158
:10094000F1DD4B015C01C114D104E104F104E9F0D3
:10095000E9DDDC01CB0188199909AA09BB09883EA8
:100960009340A105B10578F321E0C21AD108E1084E
:10097000F10888EE880E83E0981EA11CB11CC114FA
:10098000D104E104F10421F7DECFFF90EF90DF9076
:10099000CF90BF90AF909F908F9008951F920F922D
:1009A0000FB60F9211242F933F938F939F93AF9382
:1009B000BF938091060490910704A0910804B09120
:1009C00009043091C90323E0230F2D3720F4019649
:1009D000A11DB11D05C026E8230F0296A11DB11D62
:1009E0002093C9038093060490930704A0930804FE
:1009F000B09309048091CA039091CB03A091CC03DA
:100A0000B091CD030196A11DB11D8093CA039093AF
:100A1000CB03A093CC03B093CD03BF91AF919F9133
:100A20008F913F912F910F900FBE0F901F901895AF
:100A30001F920F920FB60F9211240BB60F922F93A5
:100A40003F934F935F936F937F938F939F93AF9356
:100A5000BF93EF93FF938091B900887F803609F4AC
:100A60009CC068F5883209F45BC090F4803109F4C9
:100A700054C038F4882309F4F6C0883009F44DC016
:100A8000F5C0883109F44CC0803209F45DC0EEC075
:100A9000803409F468C048F4803309F455C08833C1
:100AA00009F0E4C08093A503D8C0803509F44FC095
:100AB000883509F45DC0883409F0D8C0D6C08839BB
:100AC00009F4C7C0A8F4883709F467C038F4883639
:100AD00009F463C0803709F460C0C8C0883809F4DD
:100AE000B8C0803909F45FC0803809F0BFC05BC06E
:100AF000803B09F486C038F4803A09F466C0883A2D
:100B000009F47FC0B3C0803C09F4A7C0883C09F455
:100B1000A4C0883B09F48AC0A9C08091C80310C052
:100B20009091C7038091C603981770F5E091C703B1
:100B300081E08E0F8093C703F0E0EA55FC4F80817F
:100B40008093BB0085EC86C08093A5038EC0E091A6
:100B5000C70381E08E0F8093C7038091BB00F0E054
:100B6000EA55FC4F80839091C7038091C6036EC005
:100B7000E091C70381E08E0F8093C7038091BB0093
:100B8000F0E0EA55FC4F80838091CF0381116DC066
:100B900081E08093CE0384EA61C083E08093D00338
:100BA0001092A403CFCF8091A403803208F051C0EB
:100BB000E091A40381E08E0F8093A4038091BB0099
:100BC000F0E0EC57FC4F8083BDCF85EC8093BC00F8
:100BD0001092D0038091A403803230F4E091A403FA
:100BE000F0E0EC57FC4F10826091A40370E0E091BC
:100BF0008203F091830384E893E019951092A40393
:100C000035C084E08093D00310928103109280035A
:100C1000E0917E03F0917F0319958091800381110B
:100C200005C081E08093800310925E03E091810310
:100C300081E08E0F80938103F0E0E25AFC4F8081C7
:100C40008093BB009091810380918003981708F4F2
:100C500079CF85E88093BC0009C085EC8093BC0007
:100C60001092D00303C01092A50381DCFF91EF9195
:100C7000BF91AF919F918F917F916F915F914F91B4
:100C80003F912F910F900BBE0F900FBE0F901F90B2
:100C90001895CF92DF92EF92FF920F931F93CF930D
:100CA000DF937C016C0187E0C80ED11CC0E0D0E06E
:100CB000062F10E0B8010C2E02C0759567950A94B6
:100CC000E2F76170F60181916F0193DD2196C430E6
:100CD000D10581F7C701DF91CF911F910F91FF904F
:100CE000EF90DF90CF90B4CDCF92DF92EF92FF9252
:100CF0000F931F93CF93DF93EC01F62E642F8C811B
:100D000078DD8D818F3F11F060E073DD8F850F2DD1
:100D100010E084FF23C06E0187E0C80ED11CE12CD7
:100D2000F12CB8010E2C02C0759567950A94E2F774
:100D30006170F60181916F015CDDFFEFEF1AFF0A30
:100D400088E0E816F10469F7CE01DF91CF911F9199
:100D50000F91FF90EF90DF90CF907ACDB80184E0B3
:100D6000759567958A95E1F7CE0193DF6F2DCE01DA
:100D7000DF91CF911F910F91FF90EF90DF90CF9077
:100D800088CF41E0B1DF81E090E0089540E0ACCF52
:100D900061E0FCDF8BE39FE10197F1F708956F922B
:100DA0007F928F929F92AF92BF92CF92DF92EF92FB
:100DB000FF920F931F93CF93DF933C014B015A0196
:100DC000E90181E080933D0388E680931C03109243
:100DD000D2031092D10360E087EA94E055DC809161
:100DE000D103813208F045C09091D0039111FCCF1E
:100DF00092E09093D00391E09093CF039FEF909374
:100E0000A5031092C7038093C603ADE1B3E026EAC1
:100E100033E0F9019E2F921B981718F49D9191933E
:100E2000F9CF1092C8038091C803806D8093C803E6
:100E30008091CE03813061F41092CE038091C8037B
:100E40008093BB008091BC0083FDF8CF85EC01C08E
:100E500085EE8093BC008091D0038230E1F38091D5
:100E6000A5038F3F31F08091A503803211F080916E
:100E7000A5031092D2031092D10310923D038091EA
:100E8000D0038111FCCF81E08093D0038093CF0306
:100E90009FEF9093A5031092C70396E09093C6032B
:100EA0008093C8038091C803806D8093C8038091AC
:100EB000CE03813061F41092CE038091C8038093F9
:100EC000BB008091BC0083FDF8CF85EC01C085EEAE
:100ED0008093BC008091D0038130E1F38091C703FF
:100EE000873018F48091C70301C087E0A6EAB3E019
:100EF0002EE333E0F9019E2F921B981718F49D9171
:100F00009193F9CF1092D4038093D30387EA94E0AE
:100F100070DB982F9695969596959E70292F220FA7
:100F2000220F920F8F70890FF301808387EA94E07C
:100F300060DB982F92959F708F70FAE09F9F800DD5
:100F40001124F401808387EA94E053DB982F96956F
:100F5000969596959670292F220F220F920F8F70DB
:100F6000890FF501808387EA94E043DB982F9295FF
:100F70009F708F70FAE09F9F800D1124888387EA0D
:100F800094E037DB982F92959F708F702AE0929FA4
:100F9000800D1124F801808387EA94E02ADB982FE2
:100FA00092959F708F70FAE09F9F800D1124F7013A
:100FB000808387EA94E01DDB982F92959F708F7055
:100FC000FAE09F9F800D1124F6018083DF91CF917D
:100FD0001F910F91FF90EF90DF90CF90BF90AF9057
:100FE0009F908F907F906F900895CF92DF92EF92B5
:100FF000FF920F931F93CF93DF936C017A018B01C4
:10100000C0E0D0E0CE15DF0589F0D8016D918D01EB
:10101000D601ED91FC910190F081E02DC60119956A
:10102000892B11F47E0102C02196ECCFC701DF911C
:10103000CF911F910F91FF90EF90DF90CF90089587
:101040000E94F5158AE094E04BD921E0892B09F440
:1010500020E0822F0895DC01ED91FC910190F08158
:10106000E02D19946115710579F0FB0101900020C4
:10107000E9F73197AF01461B570BDC01ED91FC916D
:101080000280F381E02D199480E090E008954F9262
:101090005F926F927F92EF92FF920F931F93CF9385
:1010A000DF93CDB7DEB7A1970FB6F894DEBF0FBEC2
:1010B000CDBF7C01FA01CB0119A2223008F42AE04D
:1010C0008E010F5D1F4F422E512C612C712CBF01E0
:1010D000A30192010E94E813F901CA01015011090C
:1010E0006A3014F4605D01C0695CD8016C93232BF5
:1010F000242B252B61F7B801C701B4DFA1960FB6E9
:10110000F894DEBF0FBECDBFDF91CF911F910F913D
:10111000FF90EF907F906F905F904F900895A2CFD7
:101120008F929F92AF92BF92CF92DF92EF92FF92F7
:10113000CF93DF93A091BA04882311F03A2F01C016
:1011400030E08091BB0490E0880F991F80579E4F3C
:10115000C090C004D090C104E090C204F090C304D9
:1011600040E050E0BA01FC01C591D49128812A23C6
:1011700023130FC04A015B012FEF821A920AA20AC1
:10118000B20A4C155D056E057F0538F4B501A40162
:10119000EACF342F252FCB0104C030E020E080E0DF
:1011A00090E0632F722FDF91CF91FF90EF90DF904F
:1011B000CF90BF90AF909F908F900895CF92DF9285
:1011C000EF92FF920F931F93CF93DF93CDB7DEB7CC
:1011D000C054D1400FB6F894DEBF0FBECDBF2FB7BD
:1011E000F8948091060490910704A0910804B091AE
:1011F00009042FBF4091BC045091BD046091BE040E
:101200007091BF048C019D01041B150B260B370B3D
:10121000B901A801403D57406105710518F480915E
:10122000C404B1C08093BC049093BD04A093BE04D9
:10123000B093BF041092B7041092B6041092B50494
:101240001092B4041092B30461E08091B804D1DA32
:101250006AEF70E080E090E069DB61E08091B804C3
:101260000ADB60E08091B804C4DA64E170E080E0F9
:1012700090E05CDBF89461E08091B804BADA8BE925
:1012800090E00197F1F762E08091B804F4DA83E22C
:1012900090E00197F1F780E043DF672B682B692B23
:1012A00021F41092C40478943BC081E039DF672BAD
:1012B000682B692BB1F38E010F5F1F4F6E012FEB6F
:1012C000C21A2EEFD20A780180E02ADFF70160838C
:1012D00071838283938381E023DFF70164837583C5
:1012E00086839783F8E0EF0EF11CEC14FD0461F7A0
:1012F000789420E030E0F80140815181628173816F
:10130000C480D580E680F7804115510561057105DF
:1013100029F0C114D104E104F10421F41092C404B1
:1013200080E031C0F90183E0F595E7958A95E1F712
:10133000ED54FB4F8081880F4C155D056E057F05D0
:1013400008F4816080832F5F3F4F085F1F4F283272
:10135000310589F62091B70430E04091B3048091C3
:10136000B40490E0840F911D4091B504840F911D49
:101370004091B604840F911D99272817390771F6FB
:1013800081E08093C404C05CDE4F0FB6F894DEBFEA
:101390000FBECDBFDF91CF911F910F91FF90EF90C6
:1013A000DF90CF900895EF92FF920F931F93CF930A
:1013B000DF93EC01623018F08F8588608F876B8B2C
:1013C0001C8A80E48D8B80E18E8B80E58F8B61E0C1
:1013D0008C8151DA8D818F3F11F061E04CDA61E050
:1013E0008E8149DA7E0187E0E80EF11C00E010E012
:1013F0008F8584FD03C084E090E002C088E090E027
:101400000817190744F461E0F70181917F0133DA8D
:101410000F5F1F4FEDCF8BE39DE00197F1F760E089
:101420008C81E7D960E08E81E4D98D818F3F11F006
:1014300060E0DFD96F8564FD19C063E0CE0129DC6F
:101440000BE416E4C8010197F1F763E0CE0121DC5B
:10145000C8010197F1F763E0CE011BDC83E592E060
:101460000197F1F762E0CE0114DC13C06062CE0197
:101470008DDC8BE496E40197F1F76F856062CE0115
:1014800085DC83E592E00197F1F76F856062CE011C
:101490007DDC6F856062CE0179DC84E0888B6CE056
:1014A000CE0174DCCE0174DC82E0898B66E0CE0173
:1014B000DF91CF911F910F91FF90EF9067CCCF9369
:1014C000DF93BC018AE094E0CDDDEC016BE073E0DA
:1014D0008AE094E0C7DD8C0F9D1FDF91CF910895C6
:1014E000462F50E060E070E02AE0D1CDCF92DF924D
:1014F000EF92FF920F931F93CF93DF9377FF1BC061
:101500006A017B01EC016DE2A6DD8C0144275527C1
:10151000BA014C195D096E097F092AE0CE01B7DDD9
:10152000800F911FDF91CF911F910F91FF90EF904E
:10153000DF90CF9008952AE0DF91CF911F910F9116
:10154000FF90EF90DF90CF90A2CDCF93DF93AB01D0
:10155000BC018AE094E0CADFEC016BE073E08AE052
:1015600094E080DD8C0F9D1FDF91CF910895643052
:1015700008F063E09091D804691710F06FEF690FDD
:10158000E62FF0E0EB53FB4F9489682F690F6068FA
:1015900085EC94E0FBCB8F929F92AF92BF92CF925B
:1015A000DF92EF92FF92CF93DF936B017C019B015F
:1015B000AC010E94F115882319F06EE073E027C09A
:1015C00046015701E894B7F82FEF3FEF4FE75FE789
:1015D000C501B4010E94F11581110DC02FEF3FEF3D
:1015E0004FE75FE7C501B4010E94A81418161CF468
:1015F00062E173E00CC02FEF3FEF4FE75FE4C701FC
:10160000B6010E948A1518167CF466E173E085EC39
:1016100094E0DF91CF91FF90EF90DF90CF90BF905B
:10162000AF909F908F901ECD2FEF3FEF4FE75FEC75
:10163000C701B6010E94A81487FDE7CF20E030E083
:10164000A901C701B6010E94A81487FF0AC06DE274
:1016500085EC94E000DDEC01F7FAF094F7F8F094F3
:1016600002C0C0E0D0E02AE037ED43EA5BE3C70107
:10167000B6010E9444144B015C010E94AC146B0142
:101680007C010E94D8149B01AC01C501B4010E94E9
:1016900043144B015C012AE0B701A60185EC94E0FC
:1016A000F6DCC80FD91F6AE173E085EC94E0DADC60
:1016B000C80FD91F20E030E040E251E4C501B40179
:1016C0000E948E154B015C010E94AC146B01E12C51
:1016D000F12C2AE0B701A60185EC94E0D8DCC80F14
:1016E000D91FC701B6010E94D8149B01AC01C501E6
:1016F000B4010E94431420E030E040E251E40E9433
:101700008E150E94AC14AB0160E070E02AE085EC1D
:1017100094E0BDDC8C0F9D1FDF91CF91FF90EF9087
:10172000DF90CF90BF90AF909F908F900895CF9211
:10173000DF92EF92FF92CF9341DD8823D1F1809128
:10174000B9048B3029F0A8F18551823048F031C0BE
:101750006091B50470E080E090E00E94D8142DC044
:10176000C091B5046C2F6F7770E080E090E00E942C
:10177000DA1420E030E040E853E40E948E156B015B
:101780007C018091B604682F70E080E090E00E94B8
:10179000DA149B01AC01C701B6010E9444142DEC80
:1017A0003CEC4CEC5DE30E948E15C7FF06C09058E0
:1017B00004C060E070E080EC9FE7CF91FF90EF9075
:1017C000DF90CF900895CF92DF92EF92FF92F6DCF8
:1017D0008823A1F18091B9048B3041F178F18551D2
:1017E000823060F56091B30470E080E090E00E9488
:1017F000D81420E030E040E853E40E948E156B01DD
:101800007C018091B404682F70E080E090E00E9439
:10181000DA149B01AC01C701B6010E9444142DECFF
:101820003CEC4CEC5DE30E948E150CC06091B3045F
:1018300070E080E090E00E94D81404C060E070E0A6
:1018400080EC9FE7FF90EF90DF90CF900895CF93CB
:10185000DF93CDB7DEB727970FB6F894DEBF0FBE84
:10186000CDBF789484B5826084BD84B5816084BD29
:1018700085B5826085BD85B5816085BD80916E002E
:10188000816080936E00109281008091810082605F
:10189000809381008091810081608093810080919C
:1018A00080008160809380008091B100846080938B
:1018B000B1008091B00081608093B0008091910070
:1018C000826080939100809191008160809391006B
:1018D000809190008160809390008091A10082604F
:1018E0008093A1008091A10081608093A1008091EC
:1018F000A00081608093A00080912101826080938C
:10190000210180912101816080932101809120013A
:1019100081608093200180917A00846080937A00B6
:1019200080917A00826080937A0080917A00816051
:1019300080937A0080917A00806880937A00109278
:10194000C10062E08091B8040E943B0480E398EFFC
:10195000AFEFBFEF8093BC049093BD04A093BE048F
:10196000B093BF041092D4031092D3031092D20309
:101970001092D1031092D00381E08093CF03109294
:10198000CE0361E084E10E94F90361E085E10E94F9
:10199000F9038091B9008E7F8093B9008091B900DE
:1019A0008D7F8093B90088E48093B80085E48093AC
:1019B000BC00E0911A04F0911B0482E08083E09166
:1019C0001604F09117041082E0911804F0911904A4
:1019D0008FEC808310922204E0911E04F0911F048A
:1019E00086E08083E0911C04F0911D048081806179
:1019F0008083E0911C04F0911D04808188608083C5
:101A0000E0911C04F0911D04808180688083E09146
:101A10001C04F0911D0480818F7D808361E08BE147
:101A20000E943B0460E089E10E943B0460E087E1A2
:101A30000E943B0460E08BE10E94F90364E085ECC6
:101A400094E0B1DC85EC94E0A3D980EA95E0A0E0D5
:101A5000B0E08093DB039093DC03A093DD03B093AD
:101A6000DE031092E3031092E4031092E503109258
:101A7000E6031092DF031092E0031092E10310924C
:101A8000E2031092D7031092D8031092D903109258
:101A9000DA031092F1031092F0031092D603109221
:101AA000D50344244A9463E0562E612C712CAA2459
:101AB000A394B12C9E012F5F3F4F6901CE01029686
:101AC0007C018E010D5F1F4F2D5F3F4FAE014B5FBD
:101AD0005F4FBE016A5F7F4F059661D96D818AE0D5
:101AE00094E0FEDC6BE772E08AE094E018DB8E8124
:101AF0008A3028F468E272E08AE094E010DB6E81BC
:101B00008AE094E0EDDC6BE772E08AE094E007DBCA
:101B10008F818A3028F468E272E08AE094E0FFDA8C
:101B20006F818AE094E0DCDC69E372E08AE094E0B3
:101B3000F6DA6B818AE094E0D3DC6AE272E08AE054
:101B400094E0EDDA6A818AE094E0CADC6AE272E04D
:101B50008AE094E0E4DA69818AE094E0C1DC6CE236
:101B600072E08AE094E0DBDAEC818E2F90E0FC01F9
:101B70003197E730F105D0F48827EC57FF4F8F4FAE
:101B800065C68BE392E011C082E492E00EC089E466
:101B900092E00BC081E592E008C08BE592E005C0C1
:101BA00084E692E002C08BE692E089DC0CDE609372
:101BB0000204709303048093040490930504B7DD3A
:101BC0006093FE037093FF038093000490930104DD
:101BD00086E30E9477047C019093FD038093FC03CD
:101BE00087E30E9477049093FB038093FA0324E633
:101BF00030E0D70133D6A30192010CD62093F6032F
:101C00003093F7034093F8035093F90360E080E0CA
:101C1000AEDC64E772E085EC94E081DA4091F60393
:101C20005091F7036091F8037091F90385EC94E00B
:101C30005DDC65E285EC94E00EDAA091FA03B091E8
:101C4000FB0324E630E00AD6A3019201E3D52093FA
:101C5000F2033093F3034093F4035093F50360E0F1
:101C600086E085DC67E772E085EC94E058DA409125
:101C7000F2035091F3036091F4037091F50385EC46
:101C800094E034DC65E285EC94E0E5D960E08CE03A
:101C90006EDC6AE772E085EC94E041DA4091F00393
:101CA0005091F103052E000C660B770B85EC94E048
:101CB0001DDC61E080E05BDC6DE772E085EC94E0C8
:101CC0002EDA6091020470910304809104049091D3
:101CD000050461DC61E089E04ADC60E872E085ECE3
:101CE00094E01DDA6091FE037091FF03809100047F
:101CF0009091010450DC64E170E080E090E00E948B
:101D000096048091F6039091F703A091F803B091A7
:101D1000F90384369105A105B105F4F420E030E023
:101D200040EF51E46091FE037091FF038091000445
:101D300090910104EFD618167CF020E030E040EAE4
:101D400051E4609102047091030480910404909125
:101D50000504FED587FF05C0B092EF03A092EE0305
:101D600004C01092EF031092EE0347EEC42E43E03E
:101D7000D42E58EEE52E53E0F52E09EE13E02AEEB0
:101D800033E04BEE53E06CEE73E08DEE93E007D85A
:101D900063E080E0ECDB6091EB0385EC94E0A0DB9A
:101DA0006BE772E085EC94E0BAD98091EC038A305D
:101DB00028F468E272E085EC94E0B1D96091EC031C
:101DC00085EC94E08DDB6BE772E085EC94E0A7D9BD
:101DD0008091ED038A3028F468E272E085EC94E0AB
:101DE0009ED96091ED0385EC94E07ADB3091EB03B2
:101DF0002091EC03822F90E04CE3349F800D911DE5
:101E00001124092E000CAA0BBB0B8093E3039093C3
:101E1000E403A093E503B093E6038091ED0390E023
:101E20003CE3239F800D911D1124092E000CAA0B69
:101E3000BB0B8093DF039093E003A093E103B09387
:101E4000E20389E10E94D103019709F03EC487E1D2
:101E50000E94D103019709F0E2C183E892E02FDBF1
:101E600062E080E084DB6FE872E085EC94E057D9B3
:101E70006091E3037091E4038091E5039091E603A0
:101E800064DB8091E3039091E403A091E503B091BA
:101E9000E603BC01CD0168587F4F8F4F9F4F609381
:101EA000DB037093DC038093DD039093DE034DDB53
:101EB0008091DB039091DC03A091DD03B091DE0300
:101EC000813A45E09407A105B10564F0805A954038
:101ED000A109B1098093DB039093DC03A093DD0398
:101EE000B093DE038091DF039091E003A091E103C2
:101EF000B091E203AC01BD0148585F4F6F4F7F4F77
:101F000041312EE05207610571054CF44093D7032F
:101F10005093D8036093D9037093DA030CC08859A7
:101F20009D40A109B1098093D7039093D803A09352
:101F3000D903B093DA036091D7037091D8038091ED
:101F4000D9039091DA0301DB1092D6031092D503E6
:101F50004091DF035091E0036091E1037091E2034F
:101F60008091D7039091D803A091D903B091DA035F
:101F700084179507A607B7070CF41DC161E08BE134
:101F80000E94F90320DC60930204709303048093A1
:101F9000040490930504CBDB6093FE037093FF036E
:101FA000809300049093010486E30E9477047C01EF
:101FB0009093FD038093FC0387E30E947704909342
:101FC000FB038093FA0324E630E0D70147D4A30152
:101FD000920120D42093F6033093F7034093F80343
:101FE0005093F90360E080E0C2DA64E772E085ECC8
:101FF00094E095D84091F6035091F7036091F8036F
:102000007091F90385EC94E071DA65E285EC94E077
:1020100022D8A091FA03B091FB0324E630E01ED44D
:10202000A3019201F7D32093F2033093F30340937B
:10203000F4035093F50360E086E099DA67E772E015
:1020400085EC94E06CD84091F2035091F3036091D9
:10205000F4037091F50385EC94E048DA65E285ECD1
:1020600094E00E942B0860E08CE081DA6AE772E07D
:1020700085EC94E054D84091F0035091F103052E83
:10208000000C660B770B85EC94E030DA61E080E0C1
:102090006EDA6DE772E085EC94E041D8609102045D
:1020A00070910304809104049091050474DA61E056
:1020B00089E05DDA60E872E085EC94E030D8609108
:1020C000FE037091FF03809100049091010463DA94
:1020D00062E080E04CDA6FE972E085EC94E01FD8B2
:1020E00027EEC22E23E0D22E38EEE32E33E0F32E7D
:1020F00009EE13E02AEE33E04BEE53E06CEE73E0B2
:102100008DEE93E00E94CF062091EC038091ED03C9
:1021100090E03CE3239F800D911D1124092E000CBB
:10212000AA0BBB0B8093DF039093E003A093E10322
:10213000B093E20363E080E01ADA6091EB0385EC90
:1021400094E0CED96BE772E085EC94E00E948F08B2
:102150008091EC038A3030F468E272E085EC94E020
:102160000E948F086091EC0385EC94E0B9D96BE78D
:1021700072E085EC94E00E948F088091ED038A3034
:1021800030F468E272E085EC94E00E948F08609180
:10219000ED0385EC94E0A4D964E670E080E090E083
:1021A0000E94960485EC94E00E94C806B092D60383
:1021B000A092D503CDCE8091D5039091D6030197FF
:1021C00051F48091F0039091F10301969093F10303
:1021D0008093F00309C062E080E0C9D960EB72E04F
:1021E00085EC94E00E948F0860E08BE10E94F90387
:1021F0001092D7031092D8031092D9031092DA03E9
:102200001092D6031092D50368EE73E080E090E060
:102210000E94960485EC94E00E94C8065AC281ECA4
:1022200092E04DD962E080E0A2D961EC72E085ECE9
:1022300094E00E948F088091EE039091EF03019744
:10224000B1F0C090E303D090E403E090E503F09098
:10225000E6038091DB039091DC03A091DD03B09154
:10226000DE03C816D906EA06FB0609F0E5C18BECC9
:1022700092E025D96091E3037091E4038091E50336
:102280009091E60362D98091E3039091E403A091D9
:10229000E503B091E603BC01CD0168587F4F8F4F35
:1022A0009F4F6093DB037093DC038093DD03909377
:1022B000DE034BD98091DB039091DC03A091DD0319
:1022C000B091DE03813A45E09407A105B10564F0C1
:1022D000805A9540A109B1098093DB039093DC03F8
:1022E000A093DD03B093DE038091DF039091E003C0
:1022F000A091E103B091E203AC01BD0148585F4FEA
:102300006F4F7F4F41312EE05207610571054CF44C
:102310004093D7035093D8036093D9037093DA03A3
:102320000CC088599D40A109B1098093D7039093AF
:10233000D803A093D903B093DA036091D7037091C7
:10234000D8038091D9039091DA03FFD81092D60375
:102350001092D5034091DF035091E0036091E103B7
:102360007091E2038091D7039091D803A091D90393
:10237000B091DA0384179507A607B7070CF427C1B5
:1023800061E08BE10E94F9031EDA6093020470930E
:1023900003048093040490930504C9D96093FE0359
:1023A0007093FF03809300049093010486E30E94DE
:1023B00077047C019093FD038093FC0387E30E94E4
:1023C00077049093FB038093FA0324E630E0D7016F
:1023D00045D2A30192011ED22093F6033093F70356
:1023E0004093F8035093F90360E080E0C0D864E7BD
:1023F00072E085EC94E00E948F084091F6035091C2
:10240000F7036091F8037091F90385EC94E06ED8BE
:1024100065E285EC94E00E942B08A091FA03B0914C
:10242000FB0324E630E01AD2A3019201F3D12093FA
:10243000F2033093F3034093F4035093F50360E009
:1024400086E095D867E772E085EC94E00E948F08FB
:102450004091F2035091F3036091F4037091F503FE
:1024600085EC94E043D865E285EC94E00E942B086B
:1024700060E08CE07CD86AE772E085EC94E00E9432
:102480008F084091F0035091F103052E000C660B6C
:10249000770B85EC94E02AD861E080E068D86DE79E
:1024A00072E085EC94E00E948F08609102047091C4
:1024B000030480910404909105046DD861E089E0E3
:1024C00056D860E872E085EC94E00E948F08609135
:1024D000FE037091FF0380910004909101045BD88A
:1024E00062E080E044D86AED72E085EC94E00E94FE
:1024F0008F0887EEC82E83E0D82E98EEE92E93E061
:10250000F92E09EE13E02AEE33E04BEE53E06CEEC9
:1025100073E08DEE93E00E94CF062091EC03809152
:10252000ED0390E03CE3239F800D911D1124092EC3
:10253000000CAA0BBB0B8093DF039093E003A093E6
:10254000E103B093E20363E080E011D86091EB0314
:1025500085EC94E00E94700A6BE772E085EC94E0F1
:102560000E948F088091EC038A3030F468E272E0B8
:1025700085EC94E00E948F086091EC0385EC94E078
:102580000E94700A6BE772E085EC94E00E948F086D
:102590008091ED038A3030F468E272E085EC94E0DB
:1025A0000E948F086091ED0385EC94E00E94700A10
:1025B00064E670E080E090E00E94960485EC94E090
:1025C0000E94C806B092D603A092D503C3CE8091D4
:1025D000D5039091D603019751F48091F003909127
:1025E000F10301969093F1038093F0030AC062E037
:1025F00080E00E94B70A60EB72E085EC94E00E94F4
:102600008F0860E08BE10E94F9031092D7031092CB
:10261000D8031092D9031092DA031092D6031092C5
:10262000D50368EE73E080E090E00E94960485ECAC
:1026300094E00E94C80642C0803A9540A105B105C9
:10264000E9F560E08BE10E94F903D701C6018858E3
:102650009F4FAF4FBF4F813A25E09207A105B105CB
:102660004CF48093DB039093DC03A093DD03B093E1
:10267000DE030EC038E2C31A35E0D30AE108F108E0
:10268000C092DB03D092DC03E092DD03F092DE0324
:102690001092D7031092D8031092D9031092DA0344
:1026A00089EE92E00E945F0A6091DB037091DC0387
:1026B0008091DD039091DE030E94A50A64E670E03C
:1026C00080E090E00E94960404C060E08BE10E94EC
:1026D000F90385EC94E00E94C8060E940402EAC94E
:1026E000EAE0F4E01382128288EE93E0A0E0B0E02A
:1026F00084839583A683B78324E032E031832083EB
:1027000025EC30E03587248724EC30E037872687B6
:1027100020EC30E0318B208B21EC30E0338B228BAE
:1027200022EC30E0358B248B26EC30E0378B268B87
:10273000118E128E138E148EE7EAF4E01382128249
:1027400084839583A683B78384E192E09183808319
:10275000E5ECF4E01382128284E292E091838083BC
:102760008CE084838FEF85838BE0868385E087838D
:1027700084E0808783E0818782E0828713861486E5
:1027800015861686178661E0CF010E94D309A3EB58
:10279000B4E088E015968C93159786E116968C9395
:1027A0001697E8EFF1E0E4911796EC931797E2EBB8
:1027B000F1E0E4911896EC93189740E85EE360E04E
:1027C00070E01D964D935D936D937C9350970895A3
:1027D000A1E21A2EAA1BBB1BFD010DC0AA1FBB1F25
:1027E000EE1FFF1FA217B307E407F50720F0A21B97
:1027F000B30BE40BF50B661F771F881F991F1A9404
:1028000069F760957095809590959B01AC01BD012D
:10281000CF010895052E97FB16F400940FD057FDB5
:1028200005D0D6DF07FC02D046F408C0509540958D
:10283000309521953F4F4F4F5F4F0895909580956C
:10284000709561957F4F8F4F9F4F0895EE0FFF1F3B
:10285000881F8BBF0790F691E02D199405D0B7FF24
:102860000895821B930B0895A29FB001B39FC001EE
:10287000A39F700D811D1124911DB29F700D811DAC
:102880001124911D08955058BB27AA270ED008C1C6
:10289000F9D030F0FED020F031F49F3F11F41EF457
:1028A000EEC00EF4E095E7FBE4C0E92F0AD180F317
:1028B000BA17620773078407950718F071F49EF53D
:1028C00022C10EF4E0950B2EBA2FA02D0B01B901F9
:1028D00090010C01CA01A0011124FF27591B99F096
:1028E000593F50F4503E68F11A16F040A22F232FA2
:1028F000342F4427585FF3CF469537952795A795F2
:10290000F0405395C9F77EF41F16BA0B620B730B98
:10291000840BBAF09150A1F0FF0FBB1F661F771F09
:10292000881FC2F70EC0BA0F621F731F841F48F4BE
:10293000879577956795B795F7959E3F08F0B3CF44
:102940009395880F08F09927EE0F9795879508952E
:102950006CD008F481E00895BCD088F09F5790F0C7
:10296000B92F9927B751A0F0D1F0660F771F881FB4
:10297000991F1AF0BA95C9F712C0B13081F0C3D0CF
:10298000B1E00895C0C0672F782F8827B85F39F06D
:10299000B93FCCF3869577956795B395D9F73EF413
:1029A00090958095709561957F4F8F4F9F4F0895BB
:1029B000E89409C097FB3EF49095809570956195D9
:1029C0007F4F8F4F9F4F9923A9F0F92F96E9BB278F
:1029D0009395F695879577956795B795F111F8CF0B
:1029E000FAF4BB0F11F460FF1BC06F5F7F4F8F4F76
:1029F0009F4F16C0882311F096E911C0772321F06C
:102A00009EE8872F762F05C0662371F096E8862F03
:102A100070E060E02AF09A95660F771F881FDAF75A
:102A2000880F9695879597F90895990F0008550F87
:102A3000AA0BE0E8FEEF16161706E807F907C0F044
:102A400012161306E407F50798F0621B730B840B4C
:102A5000950B39F40A2661F0232B242B252B21F426
:102A600008950A2609F4A140A6958FEF811D811DC6
:102A7000089597F99F6780E870E060E008959FEF00
:102A800080EC089500240A94161617061806090605
:102A9000089500240A9412161306140605060895D4
:102AA000092E0394000C11F4882352F0BB0F40F45C
:102AB000BF2B11F460FF04C06F5F7F4F8F4F9F4F9C
:102AC000089557FD9058440F551F59F05F3F71F01E
:102AD0004795880F97FB991F61F09F3F79F0879585
:102AE0000895121613061406551FF2CF4695F1DF0E
:102AF00008C0161617061806991FF1CF869571059E
:102B0000610508940895E894BB2766277727CB01D1
:102B100097F908958ADF08F48FEF08950BD0C0CF9E
:102B2000B1DF28F0B6DF18F0952309F0A2CFA7CFC8
:102B30001124EACFC6DFA0F3959FD1F3950F50E0A3
:102B4000551F629FF001729FBB27F00DB11D639F5F
:102B5000AA27F00DB11DAA1F649F6627B00DA11D05
:102B6000661F829F2227B00DA11D621F739FB00DAB
:102B7000A11D621F839FA00D611D221F749F33271B
:102B8000A00D611D231F849F600D211D822F762FB4
:102B90006A2F11249F5750408AF0E1F088234AF0B1
:102BA000EE0FFF1FBB1F661F771F881F91505040FD
:102BB000A9F79E3F510570F05CCFA6CF5F3FECF3C5
:102BC000983EDCF3869577956795B795F795E795E9
:102BD0009F5FC1F7FE2B880F911D9695879597F9FA
:102BE000089523DF880B990B089581E090E0F89415
:062BF00000C0F894FFCFC5
:102BF600000000009D01F50770014E016201E3012E
:102C060000000000440315030D03F902EA02E9027D
:102C160000000000C106F50730002F00204461794E
:102C2600206F66207765656B3A200053756E646188
:102C360079004D6F6E6461790054756573646179CE
:102C4600005765646E6573646179005468757273C4
:102C560064617900467269646179005361747572C2
:102C6600646179004D3A004C3A00433A00483A0014
:102C7600543A004D414E55414C204D4F4445004D70
:102C8600616E75616C205374617274696E67004D74
:102C9600616E75616C3A205761746572696E670082
:102CA60053756666696369656E74205761746572EB
:102CB600004175746F204D6F64650053656E736FC8
:102CC60072206F722054696D65004175746F3A20E9
:102CD6005761746572696E67004175746F204D6F38
:102CE60064653A2046697273742054696D6520499B
:102CF6006E697469616C697A6564000D0A006E61BB
:0C2D06006E00696E66006F7666002E009D
:00000001FF
